{
  "_format": "hh-sol-artifact-1",
  "contractName": "BasicNFT",
  "sourceName": "contracts/BasicNFT.sol",
  "abi": [
    {
      "inputs": [],
      "stateMutability": "nonpayable",
      "type": "constructor"
    },
    {
      "anonymous": false,
      "inputs": [
        {
          "indexed": true,
          "internalType": "address",
          "name": "owner",
          "type": "address"
        },
        {
          "indexed": true,
          "internalType": "address",
          "name": "approved",
          "type": "address"
        },
        {
          "indexed": true,
          "internalType": "uint256",
          "name": "tokenId",
          "type": "uint256"
        }
      ],
      "name": "Approval",
      "type": "event"
    },
    {
      "anonymous": false,
      "inputs": [
        {
          "indexed": true,
          "internalType": "address",
          "name": "owner",
          "type": "address"
        },
        {
          "indexed": true,
          "internalType": "address",
          "name": "operator",
          "type": "address"
        },
        {
          "indexed": false,
          "internalType": "bool",
          "name": "approved",
          "type": "bool"
        }
      ],
      "name": "ApprovalForAll",
      "type": "event"
    },
    {
      "anonymous": false,
      "inputs": [
        {
          "indexed": true,
          "internalType": "address",
          "name": "from",
          "type": "address"
        },
        {
          "indexed": true,
          "internalType": "address",
          "name": "to",
          "type": "address"
        },
        {
          "indexed": true,
          "internalType": "uint256",
          "name": "tokenId",
          "type": "uint256"
        }
      ],
      "name": "Transfer",
      "type": "event"
    },
    {
      "inputs": [],
      "name": "TOKEN_URI",
      "outputs": [
        {
          "internalType": "string",
          "name": "",
          "type": "string"
        }
      ],
      "stateMutability": "view",
      "type": "function"
    },
    {
      "inputs": [
        {
          "internalType": "address",
          "name": "to",
          "type": "address"
        },
        {
          "internalType": "uint256",
          "name": "tokenId",
          "type": "uint256"
        }
      ],
      "name": "approve",
      "outputs": [],
      "stateMutability": "nonpayable",
      "type": "function"
    },
    {
      "inputs": [
        {
          "internalType": "address",
          "name": "owner",
          "type": "address"
        }
      ],
      "name": "balanceOf",
      "outputs": [
        {
          "internalType": "uint256",
          "name": "",
          "type": "uint256"
        }
      ],
      "stateMutability": "view",
      "type": "function"
    },
    {
      "inputs": [
        {
          "internalType": "uint256",
          "name": "tokenId",
          "type": "uint256"
        }
      ],
      "name": "getApproved",
      "outputs": [
        {
          "internalType": "address",
          "name": "",
          "type": "address"
        }
      ],
      "stateMutability": "view",
      "type": "function"
    },
    {
      "inputs": [],
      "name": "getTokenCounter",
      "outputs": [
        {
          "internalType": "uint256",
          "name": "",
          "type": "uint256"
        }
      ],
      "stateMutability": "nonpayable",
      "type": "function"
    },
    {
      "inputs": [
        {
          "internalType": "address",
          "name": "owner",
          "type": "address"
        },
        {
          "internalType": "address",
          "name": "operator",
          "type": "address"
        }
      ],
      "name": "isApprovedForAll",
      "outputs": [
        {
          "internalType": "bool",
          "name": "",
          "type": "bool"
        }
      ],
      "stateMutability": "view",
      "type": "function"
    },
    {
      "inputs": [],
      "name": "mintNFT",
      "outputs": [
        {
          "internalType": "uint256",
          "name": "",
          "type": "uint256"
        }
      ],
      "stateMutability": "nonpayable",
      "type": "function"
    },
    {
      "inputs": [],
      "name": "name",
      "outputs": [
        {
          "internalType": "string",
          "name": "",
          "type": "string"
        }
      ],
      "stateMutability": "view",
      "type": "function"
    },
    {
      "inputs": [
        {
          "internalType": "uint256",
          "name": "tokenId",
          "type": "uint256"
        }
      ],
      "name": "ownerOf",
      "outputs": [
        {
          "internalType": "address",
          "name": "",
          "type": "address"
        }
      ],
      "stateMutability": "view",
      "type": "function"
    },
    {
      "inputs": [
        {
          "internalType": "address",
          "name": "from",
          "type": "address"
        },
        {
          "internalType": "address",
          "name": "to",
          "type": "address"
        },
        {
          "internalType": "uint256",
          "name": "tokenId",
          "type": "uint256"
        }
      ],
      "name": "safeTransferFrom",
      "outputs": [],
      "stateMutability": "nonpayable",
      "type": "function"
    },
    {
      "inputs": [
        {
          "internalType": "address",
          "name": "from",
          "type": "address"
        },
        {
          "internalType": "address",
          "name": "to",
          "type": "address"
        },
        {
          "internalType": "uint256",
          "name": "tokenId",
          "type": "uint256"
        },
        {
          "internalType": "bytes",
          "name": "_data",
          "type": "bytes"
        }
      ],
      "name": "safeTransferFrom",
      "outputs": [],
      "stateMutability": "nonpayable",
      "type": "function"
    },
    {
      "inputs": [
        {
          "internalType": "address",
          "name": "operator",
          "type": "address"
        },
        {
          "internalType": "bool",
          "name": "approved",
          "type": "bool"
        }
      ],
      "name": "setApprovalForAll",
      "outputs": [],
      "stateMutability": "nonpayable",
      "type": "function"
    },
    {
      "inputs": [
        {
          "internalType": "bytes4",
          "name": "interfaceId",
          "type": "bytes4"
        }
      ],
      "name": "supportsInterface",
      "outputs": [
        {
          "internalType": "bool",
          "name": "",
          "type": "bool"
        }
      ],
      "stateMutability": "view",
      "type": "function"
    },
    {
      "inputs": [],
      "name": "symbol",
      "outputs": [
        {
          "internalType": "string",
          "name": "",
          "type": "string"
        }
      ],
      "stateMutability": "view",
      "type": "function"
    },
    {
      "inputs": [
        {
          "internalType": "uint256",
          "name": "",
          "type": "uint256"
        }
      ],
      "name": "tokenURI",
      "outputs": [
        {
          "internalType": "string",
          "name": "",
          "type": "string"
        }
      ],
      "stateMutability": "view",
      "type": "function"
    },
    {
      "inputs": [
        {
          "internalType": "address",
          "name": "from",
          "type": "address"
        },
        {
          "internalType": "address",
          "name": "to",
          "type": "address"
        },
        {
          "internalType": "uint256",
          "name": "tokenId",
          "type": "uint256"
        }
      ],
      "name": "transferFrom",
      "outputs": [],
      "stateMutability": "nonpayable",
      "type": "function"
    }
  ],
  "bytecode": "0x60806040523480156200001157600080fd5b506040518060400160405280600681526020017f4f6c6976696100000000000000000000000000000000000000000000000000008152506040518060400160405280600381526020017f4f4c490000000000000000000000000000000000000000000000000000000000815250816000908051906020019062000096929190620000c0565b508060019080519060200190620000af929190620000c0565b5050506000600681905550620001d5565b828054620000ce9062000170565b90600052602060002090601f016020900481019282620000f257600085556200013e565b82601f106200010d57805160ff19168380011785556200013e565b828001600101855582156200013e579182015b828111156200013d57825182559160200191906001019062000120565b5b5090506200014d919062000151565b5090565b5b808211156200016c57600081600090555060010162000152565b5090565b600060028204905060018216806200018957607f821691505b60208210811415620001a0576200019f620001a6565b5b50919050565b7f4e487b7100000000000000000000000000000000000000000000000000000000600052602260045260246000fd5b61246f80620001e56000396000f3fe608060405234801561001057600080fd5b50600436106101005760003560e01c80636e02007d11610097578063a22cb46511610066578063a22cb465146102af578063b88d4fde146102cb578063c87b56dd146102e7578063e985e9c51461031757610100565b80636e02007d1461022557806370a082311461024357806378ce90351461027357806395d89b411461029157610100565b806314f710fe116100d357806314f710fe1461019f57806323b872dd146101bd57806342842e0e146101d95780636352211e146101f557610100565b806301ffc9a71461010557806306fdde0314610135578063081812fc14610153578063095ea7b314610183575b600080fd5b61011f600480360381019061011a91906117b0565b610347565b60405161012c9190611b04565b60405180910390f35b61013d610429565b60405161014a9190611b1f565b60405180910390f35b61016d6004803603810190610168919061180a565b6104bb565b60405161017a9190611a9d565b60405180910390f35b61019d60048036038101906101989190611770565b610540565b005b6101a7610658565b6040516101b49190611ce1565b60405180910390f35b6101d760048036038101906101d2919061165a565b610688565b005b6101f360048036038101906101ee919061165a565b6106e8565b005b61020f600480360381019061020a919061180a565b610708565b60405161021c9190611a9d565b60405180910390f35b61022d6107ba565b60405161023a9190611ce1565b60405180910390f35b61025d600480360381019061025891906115ed565b6107c4565b60405161026a9190611ce1565b60405180910390f35b61027b61087c565b6040516102889190611b1f565b60405180910390f35b610299610898565b6040516102a69190611b1f565b60405180910390f35b6102c960048036038101906102c49190611730565b61092a565b005b6102e560048036038101906102e091906116ad565b610940565b005b61030160048036038101906102fc919061180a565b6109a2565b60405161030e9190611b1f565b60405180910390f35b610331600480360381019061032c919061161a565b6109c4565b60405161033e9190611b04565b60405180910390f35b60007f80ac58cd000000000000000000000000000000000000000000000000000000007bffffffffffffffffffffffffffffffffffffffffffffffffffffffff1916827bffffffffffffffffffffffffffffffffffffffffffffffffffffffff1916148061041257507f5b5e139f000000000000000000000000000000000000000000000000000000007bffffffffffffffffffffffffffffffffffffffffffffffffffffffff1916827bffffffffffffffffffffffffffffffffffffffffffffffffffffffff1916145b80610422575061042182610a58565b5b9050919050565b60606000805461043890611eca565b80601f016020809104026020016040519081016040528092919081815260200182805461046490611eca565b80156104b15780601f10610486576101008083540402835291602001916104b1565b820191906000526020600020905b81548152906001019060200180831161049457829003601f168201915b5050505050905090565b60006104c682610ac2565b610505576040517f08c379a00000000000000000000000000000000000000000000000000000000081526004016104fc90611c81565b60405180910390fd5b6004600083815260200190815260200160002060009054906101000a900473ffffffffffffffffffffffffffffffffffffffff169050919050565b600061054b82610708565b90508073ffffffffffffffffffffffffffffffffffffffff168373ffffffffffffffffffffffffffffffffffffffff1614156105bc576040517f08c379a00000000000000000000000000000000000000000000000000000000081526004016105b390611ca1565b60405180910390fd5b8073ffffffffffffffffffffffffffffffffffffffff166105db610b2e565b73ffffffffffffffffffffffffffffffffffffffff16148061060a575061060981610604610b2e565b6109c4565b5b610649576040517f08c379a000000000000000000000000000000000000000000000000000000000815260040161064090611c01565b60405180910390fd5b6106538383610b36565b505050565b600061066633600654610bef565b6001600660008282546106799190611d8a565b92505081905550600654905090565b610699610693610b2e565b82610c0d565b6106d8576040517f08c379a00000000000000000000000000000000000000000000000000000000081526004016106cf90611cc1565b60405180910390fd5b6106e3838383610ceb565b505050565b61070383838360405180602001604052806000815250610940565b505050565b6000806002600084815260200190815260200160002060009054906101000a900473ffffffffffffffffffffffffffffffffffffffff169050600073ffffffffffffffffffffffffffffffffffffffff168173ffffffffffffffffffffffffffffffffffffffff1614156107b1576040517f08c379a00000000000000000000000000000000000000000000000000000000081526004016107a890611c41565b60405180910390fd5b80915050919050565b6000600654905090565b60008073ffffffffffffffffffffffffffffffffffffffff168273ffffffffffffffffffffffffffffffffffffffff161415610835576040517f08c379a000000000000000000000000000000000000000000000000000000000815260040161082c90611c21565b60405180910390fd5b600360008373ffffffffffffffffffffffffffffffffffffffff1673ffffffffffffffffffffffffffffffffffffffff168152602001908152602001600020549050919050565b6040518060a00160405280606d81526020016123cd606d913981565b6060600180546108a790611eca565b80601f01602080910402602001604051908101604052809291908181526020018280546108d390611eca565b80156109205780601f106108f557610100808354040283529160200191610920565b820191906000526020600020905b81548152906001019060200180831161090357829003601f168201915b5050505050905090565b61093c610935610b2e565b8383610f52565b5050565b61095161094b610b2e565b83610c0d565b610990576040517f08c379a000000000000000000000000000000000000000000000000000000000815260040161098790611cc1565b60405180910390fd5b61099c848484846110bf565b50505050565b60606040518060a00160405280606d81526020016123cd606d91399050919050565b6000600560008473ffffffffffffffffffffffffffffffffffffffff1673ffffffffffffffffffffffffffffffffffffffff16815260200190815260200160002060008373ffffffffffffffffffffffffffffffffffffffff1673ffffffffffffffffffffffffffffffffffffffff16815260200190815260200160002060009054906101000a900460ff16905092915050565b60007f01ffc9a7000000000000000000000000000000000000000000000000000000007bffffffffffffffffffffffffffffffffffffffffffffffffffffffff1916827bffffffffffffffffffffffffffffffffffffffffffffffffffffffff1916149050919050565b60008073ffffffffffffffffffffffffffffffffffffffff166002600084815260200190815260200160002060009054906101000a900473ffffffffffffffffffffffffffffffffffffffff1673ffffffffffffffffffffffffffffffffffffffff1614159050919050565b600033905090565b816004600083815260200190815260200160002060006101000a81548173ffffffffffffffffffffffffffffffffffffffff021916908373ffffffffffffffffffffffffffffffffffffffff160217905550808273ffffffffffffffffffffffffffffffffffffffff16610ba983610708565b73ffffffffffffffffffffffffffffffffffffffff167f8c5be1e5ebec7d5bd14f71427d1e84f3dd0314c0f7b2291e5b200ac8c7c3b92560405160405180910390a45050565b610c0982826040518060200160405280600081525061111b565b5050565b6000610c1882610ac2565b610c57576040517f08c379a0000000000000000000000000000000000000000000000000000000008152600401610c4e90611be1565b60405180910390fd5b6000610c6283610708565b90508073ffffffffffffffffffffffffffffffffffffffff168473ffffffffffffffffffffffffffffffffffffffff161480610ca45750610ca381856109c4565b5b80610ce257508373ffffffffffffffffffffffffffffffffffffffff16610cca846104bb565b73ffffffffffffffffffffffffffffffffffffffff16145b91505092915050565b8273ffffffffffffffffffffffffffffffffffffffff16610d0b82610708565b73ffffffffffffffffffffffffffffffffffffffff1614610d61576040517f08c379a0000000000000000000000000000000000000000000000000000000008152600401610d5890611b61565b60405180910390fd5b600073ffffffffffffffffffffffffffffffffffffffff168273ffffffffffffffffffffffffffffffffffffffff161415610dd1576040517f08c379a0000000000000000000000000000000000000000000000000000000008152600401610dc890611ba1565b60405180910390fd5b610ddc838383611176565b610de7600082610b36565b6001600360008573ffffffffffffffffffffffffffffffffffffffff1673ffffffffffffffffffffffffffffffffffffffff1681526020019081526020016000206000828254610e379190611de0565b925050819055506001600360008473ffffffffffffffffffffffffffffffffffffffff1673ffffffffffffffffffffffffffffffffffffffff1681526020019081526020016000206000828254610e8e9190611d8a565b92505081905550816002600083815260200190815260200160002060006101000a81548173ffffffffffffffffffffffffffffffffffffffff021916908373ffffffffffffffffffffffffffffffffffffffff160217905550808273ffffffffffffffffffffffffffffffffffffffff168473ffffffffffffffffffffffffffffffffffffffff167fddf252ad1be2c89b69c2b068fc378daa952ba7f163c4a11628f55a4df523b3ef60405160405180910390a4610f4d83838361117b565b505050565b8173ffffffffffffffffffffffffffffffffffffffff168373ffffffffffffffffffffffffffffffffffffffff161415610fc1576040517f08c379a0000000000000000000000000000000000000000000000000000000008152600401610fb890611bc1565b60405180910390fd5b80600560008573ffffffffffffffffffffffffffffffffffffffff1673ffffffffffffffffffffffffffffffffffffffff16815260200190815260200160002060008473ffffffffffffffffffffffffffffffffffffffff1673ffffffffffffffffffffffffffffffffffffffff16815260200190815260200160002060006101000a81548160ff0219169083151502179055508173ffffffffffffffffffffffffffffffffffffffff168373ffffffffffffffffffffffffffffffffffffffff167f17307eab39ab6107e8899845ad3d59bd9653f200f220920489ca2b5937696c31836040516110b29190611b04565b60405180910390a3505050565b6110ca848484610ceb565b6110d684848484611180565b611115576040517f08c379a000000000000000000000000000000000000000000000000000000000815260040161110c90611b41565b60405180910390fd5b50505050565b6111258383611317565b6111326000848484611180565b611171576040517f08c379a000000000000000000000000000000000000000000000000000000000815260040161116890611b41565b60405180910390fd5b505050565b505050565b505050565b60006111a18473ffffffffffffffffffffffffffffffffffffffff166114f1565b1561130a578373ffffffffffffffffffffffffffffffffffffffff1663150b7a026111ca610b2e565b8786866040518563ffffffff1660e01b81526004016111ec9493929190611ab8565b602060405180830381600087803b15801561120657600080fd5b505af192505050801561123757506040513d601f19601f8201168201806040525081019061123491906117dd565b60015b6112ba573d8060008114611267576040519150601f19603f3d011682016040523d82523d6000602084013e61126c565b606091505b506000815114156112b2576040517f08c379a00000000000000000000000000000000000000000000000000000000081526004016112a990611b41565b60405180910390fd5b805181602001fd5b63150b7a0260e01b7bffffffffffffffffffffffffffffffffffffffffffffffffffffffff1916817bffffffffffffffffffffffffffffffffffffffffffffffffffffffff19161491505061130f565b600190505b949350505050565b600073ffffffffffffffffffffffffffffffffffffffff168273ffffffffffffffffffffffffffffffffffffffff161415611387576040517f08c379a000000000000000000000000000000000000000000000000000000000815260040161137e90611c61565b60405180910390fd5b61139081610ac2565b156113d0576040517f08c379a00000000000000000000000000000000000000000000000000000000081526004016113c790611b81565b60405180910390fd5b6113dc60008383611176565b6001600360008473ffffffffffffffffffffffffffffffffffffffff1673ffffffffffffffffffffffffffffffffffffffff168152602001908152602001600020600082825461142c9190611d8a565b92505081905550816002600083815260200190815260200160002060006101000a81548173ffffffffffffffffffffffffffffffffffffffff021916908373ffffffffffffffffffffffffffffffffffffffff160217905550808273ffffffffffffffffffffffffffffffffffffffff16600073ffffffffffffffffffffffffffffffffffffffff167fddf252ad1be2c89b69c2b068fc378daa952ba7f163c4a11628f55a4df523b3ef60405160405180910390a46114ed6000838361117b565b5050565b6000808273ffffffffffffffffffffffffffffffffffffffff163b119050919050565b600061152761152284611d21565b611cfc565b90508281526020810184848401111561154357611542611fbf565b5b61154e848285611e88565b509392505050565b60008135905061156581612370565b92915050565b60008135905061157a81612387565b92915050565b60008135905061158f8161239e565b92915050565b6000815190506115a48161239e565b92915050565b600082601f8301126115bf576115be611fba565b5b81356115cf848260208601611514565b91505092915050565b6000813590506115e7816123b5565b92915050565b60006020828403121561160357611602611fc9565b5b600061161184828501611556565b91505092915050565b6000806040838503121561163157611630611fc9565b5b600061163f85828601611556565b925050602061165085828601611556565b9150509250929050565b60008060006060848603121561167357611672611fc9565b5b600061168186828701611556565b935050602061169286828701611556565b92505060406116a3868287016115d8565b9150509250925092565b600080600080608085870312156116c7576116c6611fc9565b5b60006116d587828801611556565b94505060206116e687828801611556565b93505060406116f7878288016115d8565b925050606085013567ffffffffffffffff81111561171857611717611fc4565b5b611724878288016115aa565b91505092959194509250565b6000806040838503121561174757611746611fc9565b5b600061175585828601611556565b92505060206117668582860161156b565b9150509250929050565b6000806040838503121561178757611786611fc9565b5b600061179585828601611556565b92505060206117a6858286016115d8565b9150509250929050565b6000602082840312156117c6576117c5611fc9565b5b60006117d484828501611580565b91505092915050565b6000602082840312156117f3576117f2611fc9565b5b600061180184828501611595565b91505092915050565b6000602082840312156118205761181f611fc9565b5b600061182e848285016115d8565b91505092915050565b61184081611e14565b82525050565b61184f81611e26565b82525050565b600061186082611d52565b61186a8185611d68565b935061187a818560208601611e97565b61188381611fce565b840191505092915050565b600061189982611d5d565b6118a38185611d79565b93506118b3818560208601611e97565b6118bc81611fce565b840191505092915050565b60006118d4603283611d79565b91506118df82611fdf565b604082019050919050565b60006118f7602583611d79565b91506119028261202e565b604082019050919050565b600061191a601c83611d79565b91506119258261207d565b602082019050919050565b600061193d602483611d79565b9150611948826120a6565b604082019050919050565b6000611960601983611d79565b915061196b826120f5565b602082019050919050565b6000611983602c83611d79565b915061198e8261211e565b604082019050919050565b60006119a6603883611d79565b91506119b18261216d565b604082019050919050565b60006119c9602a83611d79565b91506119d4826121bc565b604082019050919050565b60006119ec602983611d79565b91506119f78261220b565b604082019050919050565b6000611a0f602083611d79565b9150611a1a8261225a565b602082019050919050565b6000611a32602c83611d79565b9150611a3d82612283565b604082019050919050565b6000611a55602183611d79565b9150611a60826122d2565b604082019050919050565b6000611a78603183611d79565b9150611a8382612321565b604082019050919050565b611a9781611e7e565b82525050565b6000602082019050611ab26000830184611837565b92915050565b6000608082019050611acd6000830187611837565b611ada6020830186611837565b611ae76040830185611a8e565b8181036060830152611af98184611855565b905095945050505050565b6000602082019050611b196000830184611846565b92915050565b60006020820190508181036000830152611b39818461188e565b905092915050565b60006020820190508181036000830152611b5a816118c7565b9050919050565b60006020820190508181036000830152611b7a816118ea565b9050919050565b60006020820190508181036000830152611b9a8161190d565b9050919050565b60006020820190508181036000830152611bba81611930565b9050919050565b60006020820190508181036000830152611bda81611953565b9050919050565b60006020820190508181036000830152611bfa81611976565b9050919050565b60006020820190508181036000830152611c1a81611999565b9050919050565b60006020820190508181036000830152611c3a816119bc565b9050919050565b60006020820190508181036000830152611c5a816119df565b9050919050565b60006020820190508181036000830152611c7a81611a02565b9050919050565b60006020820190508181036000830152611c9a81611a25565b9050919050565b60006020820190508181036000830152611cba81611a48565b9050919050565b60006020820190508181036000830152611cda81611a6b565b9050919050565b6000602082019050611cf66000830184611a8e565b92915050565b6000611d06611d17565b9050611d128282611efc565b919050565b6000604051905090565b600067ffffffffffffffff821115611d3c57611d3b611f8b565b5b611d4582611fce565b9050602081019050919050565b600081519050919050565b600081519050919050565b600082825260208201905092915050565b600082825260208201905092915050565b6000611d9582611e7e565b9150611da083611e7e565b9250827fffffffffffffffffffffffffffffffffffffffffffffffffffffffffffffffff03821115611dd557611dd4611f2d565b5b828201905092915050565b6000611deb82611e7e565b9150611df683611e7e565b925082821015611e0957611e08611f2d565b5b828203905092915050565b6000611e1f82611e5e565b9050919050565b60008115159050919050565b60007fffffffff0000000000000000000000000000000000000000000000000000000082169050919050565b600073ffffffffffffffffffffffffffffffffffffffff82169050919050565b6000819050919050565b82818337600083830152505050565b60005b83811015611eb5578082015181840152602081019050611e9a565b83811115611ec4576000848401525b50505050565b60006002820490506001821680611ee257607f821691505b60208210811415611ef657611ef5611f5c565b5b50919050565b611f0582611fce565b810181811067ffffffffffffffff82111715611f2457611f23611f8b565b5b80604052505050565b7f4e487b7100000000000000000000000000000000000000000000000000000000600052601160045260246000fd5b7f4e487b7100000000000000000000000000000000000000000000000000000000600052602260045260246000fd5b7f4e487b7100000000000000000000000000000000000000000000000000000000600052604160045260246000fd5b600080fd5b600080fd5b600080fd5b600080fd5b6000601f19601f8301169050919050565b7f4552433732313a207472616e7366657220746f206e6f6e20455243373231526560008201527f63656976657220696d706c656d656e7465720000000000000000000000000000602082015250565b7f4552433732313a207472616e736665722066726f6d20696e636f72726563742060008201527f6f776e6572000000000000000000000000000000000000000000000000000000602082015250565b7f4552433732313a20746f6b656e20616c7265616479206d696e74656400000000600082015250565b7f4552433732313a207472616e7366657220746f20746865207a65726f2061646460008201527f7265737300000000000000000000000000000000000000000000000000000000602082015250565b7f4552433732313a20617070726f766520746f2063616c6c657200000000000000600082015250565b7f4552433732313a206f70657261746f7220717565727920666f72206e6f6e657860008201527f697374656e7420746f6b656e0000000000000000000000000000000000000000602082015250565b7f4552433732313a20617070726f76652063616c6c6572206973206e6f74206f7760008201527f6e6572206e6f7220617070726f76656420666f7220616c6c0000000000000000602082015250565b7f4552433732313a2062616c616e636520717565727920666f7220746865207a6560008201527f726f206164647265737300000000000000000000000000000000000000000000602082015250565b7f4552433732313a206f776e657220717565727920666f72206e6f6e657869737460008201527f656e7420746f6b656e0000000000000000000000000000000000000000000000602082015250565b7f4552433732313a206d696e7420746f20746865207a65726f2061646472657373600082015250565b7f4552433732313a20617070726f76656420717565727920666f72206e6f6e657860008201527f697374656e7420746f6b656e0000000000000000000000000000000000000000602082015250565b7f4552433732313a20617070726f76616c20746f2063757272656e74206f776e6560008201527f7200000000000000000000000000000000000000000000000000000000000000602082015250565b7f4552433732313a207472616e736665722063616c6c6572206973206e6f74206f60008201527f776e6572206e6f7220617070726f766564000000000000000000000000000000602082015250565b61237981611e14565b811461238457600080fd5b50565b61239081611e26565b811461239b57600080fd5b50565b6123a781611e32565b81146123b257600080fd5b50565b6123be81611e7e565b81146123c957600080fd5b5056fe697066733a2f2f626166796265696765746875786962716e636b367a68746e6f3669666c366f3378716e66746c3265696e6c62356a6e666e6e7a36723268343672652e697066732e6c6f63616c686f73743a383038302f3f66696c656e616d653d6f6c69766961312e6a736f6ea2646970667358221220dfaed5bf978e580ff11ad264651f587cd45d73aa987d96140422f5c0bda1f75f64736f6c63430008050033",
  "linkReferences": {},
  "deployedLinkReferences": {}
}